:100000000C9463000C948B000C948B000C944F02A6
:100010000C944F020C944F020C948B000C948B00A8
:100020000C948B000C948B000C948B000C948B0024
:100030000C948B000C948B000C948B000C948B0014
:100040000C9405020C948B000C948B000C948B0088
:100050000C948B000C948B000C948B000C948B00F4
:100060000C948B000C948B000000000024002700EF
:100070002A0000000000250028002B0000000000DE
:1000800023002600290004040404040404040202DA
:100090000202020203030303030301020408102007
:1000A0004080010204081020010204081020000012
:1000B0000008000201000003040700000000000027
:1000C00000000604710411241FBECFEFD8E0DEBF8C
:1000D000CDBF11E0A0E0B1E0EAE9F9E002C005908F
:1000E0000D92A835B107D9F721E0A8E5B1E001C02C
:1000F0001D92AA3CB207E1F710E0C2E6D0E004C0CE
:100100002197FE010E94B504C136D107C9F70E94AC
:10011000C9020C94C0040C940000CF92DF92EF92BD
:10012000FF920F931F93CF93DF936C017A018B01A2
:10013000C0E0D0E0CE15DF0581F0D8016D918D01D2
:10014000D601ED91FC910190F081E02DC601099559
:10015000892B11F02196EECF7E01C701DF91CF915F
:100160001F910F91FF90EF90DF90CF900895833013
:1001700081F028F4813099F08230A1F00895873021
:10018000A9F08830B9F08430D1F4809180008F7D5F
:1001900003C0809180008F7780938000089584B59C
:1001A0008F7702C084B58F7D84BD08958091B000A3
:1001B0008F7703C08091B0008F7D8093B000089549
:1001C0001F93CF93DF93282F30E0F901E255FF4FC3
:1001D0008491F901E656FF4FD491F901EA57FF4F98
:1001E000C491CC23C1F0162F81110E94B700EC2FCF
:1001F000F0E0EE0FFF1FEE58FF4FA591B4919FB7AF
:10020000F894111104C08C91D095D82302C0EC91C0
:10021000DE2BDC939FBFDF91CF911F910895CF9389
:10022000DF9390E0FC01E656FF4F2491FC01EA5772
:10023000FF4F8491882361F190E0880F991FFC01A2
:10024000E859FF4FC591D491FC01EE58FF4FA5919D
:10025000B491611109C09FB7F894888120958223D9
:100260008883EC912E230BC0623061F49FB7F89421
:100270008881322F309583238883EC912E2B2C9309
:100280009FBF06C08FB7F894E8812E2B28838FBFBD
:10029000DF91CF91089520919A0130919B01281709
:1002A000390771F49091980180919901981741F064
:1002B000E0919801F0E0E85AFE4F808190E00895C7
:1002C0008FEF9FEF089508951F93CF93DF93DC0185
:1002D0005C968D919C915D97009739F421E030E018
:1002E00013963C932E9312973BC05196ED91FC913F
:1002F000529750962C915097322F30951FB75E969B
:100300004C915E97742F727041FD6095F894408116
:10031000772311F0422B01C043234083EC01219746
:10032000F1F748E0508160FF02C0522B01C0532317
:100330005083EC012197F1F76695415099F7808140
:10034000772319F08323808302C0282B20831FBFCB
:100350005C968D919C915D970197F1F781E090E01B
:10036000DF91CF911F91089520919A0130919B01C7
:100370002817390771F4809199012091980190E034
:10038000805C9F4F821B910960E470E00E948D04A5
:10039000089580E090E0089520919A0130919B01AA
:1003A00028173907B9F4909198018091990198170D
:1003B00089F0E0919801F0E0E85AFE4F80812091A9
:1003C000980130E02F5F3F4F2F7333272093980120
:1003D00090E008958FEF9FEF0895089580E090E0FA
:1003E0000895009769F0FC0101900020E9F731972A
:1003F000AF01481B590BBC018BEA91E00C948D00B6
:1004000080E090E008950E94BB041F920F920FB607
:100410000F9211242F933F938F939F93AF93BF938A
:100420008091A7019091A801A091A901B091AA0182
:100430003091A60123E0230F2D3720F40196A11D52
:10044000B11D05C026E8230F0296A11DB11D209302
:10045000A6018093A7019093A801A093A901B0934E
:10046000AA018091A2019091A301A091A401B09151
:10047000A5010196A11DB11D8093A2019093A30136
:10048000A093A401B093A501BF91AF919F918F91CB
:100490003F912F910F900FBE0F901F9018951F92B4
:1004A0000F920FB60F9211242F933F934F935F93A8
:1004B0006F937F938F939F93AF93BF93EF93FF932C
:1004C000E0919A01F0919B01309709F451C0968D0B
:1004D000A685B785858591FF04C09C91892329F461
:1004E00047C09C91892309F043C0A389B4899C919A
:1004F0008589809589238C93868997890197F1F75F
:10050000608D718DA685B785558538E020E0CB01DB
:100510000197F1F7822F90E095958795282F4C91C0
:10052000452309F02068315091F7868D81FD209593
:100530008091990190E001968F73992730919801ED
:10054000381749F0A0919901B0E0A85ABE4F2C93FA
:100550008093990103C0868D8160868F828D938DF3
:100560000197F1F7A389B4899C918589892B8C9394
:10057000FF91EF91BF91AF919F918F917F916F917B
:100580005F914F913F912F910F900FBE0F901F9051
:100590001895789484B5826084BD84B5816084BDEB
:1005A00085B5826085BD85B5816085BD80916E0011
:1005B000816080936E001092810080918100826042
:1005C000809381008091810081608093810080917F
:1005D00080008160809380008091B100846080936E
:1005E000B1008091B00081608093B00080917A006A
:1005F000846080937A0080917A00826080937A0090
:1006000080917A00816080937A0080917A0080687E
:1006100080937A001092C1001092C6011092C50119
:100620001092C4011092C3011092C2011092C10134
:100630008DE991E09093C8018093C7019091B70133
:10064000963108F058C02DEB30E03093C201209372
:10065000C1012BE931E03093C4012093C3012CE2A6
:1006600031E03093C6012093C50140916800983075
:1006700058F031E09E3008F430E021E0822F01C0D4
:10068000880F3A95EAF701C084E0842B80936800D4
:10069000983038F09E3040F0963148F020E030E05D
:1006A00008C02DE630E005C02BE630E002C02CE6A5
:1006B00030E03093BF012093BE01983030F481E0E8
:1006C00001C0880F9A95EAF70EC0292F30E09E30BE
:1006D00018F42850310902C02E50310981E001C0C0
:1006E000880F2A95EAF78093C0018091C701909105
:1006F000C8010197F1F78091C5019091C601892B3E
:1007000049F1E0919A01F0919B0181E0EB3AF80701
:1007100009F1309739F0A389B4899C918589809536
:1007200089238C938091C9018E7F8093C901109297
:100730009901109298018BEA91E090939B0180932C
:100740009A01E091BE01F091BF0190818091C001BA
:10075000892B8083C2E061E08C2F0E940F01CF5F64
:10076000C830C9F7CCEBD0E008EA10E094E9E92EF4
:1007700090E0F92E20E0C22E20E0D22E8BEA91E00C
:100780000E94B401892B09F437C08BEA91E00E94E2
:10079000CC01EEEFE80FE63058F4F0E0E456FE4FFF
:1007A00061E09081911160E060830E94E00024C0CC
:1007B0008031C9F4FE018491F801A490F701B4904E
:1007C000BB2009F181110E94B700EB2DF0E0EE0F84
:1007D000FF1FE458FF4FA591B4918C918A2199F0A5
:1007E0008FE391E007C0813119F482E191E002C00A
:1007F00087E291E00E94F101C114D10409F4BECF57
:100800000E940000BBCF88E491E0F4CF1092AE01CB
:100810001092AD0188EE93E0A0E0B0E08093AF01CC
:100820009093B001A093B101B093B20184E091E044
:100830009093AC018093AB011092C2011092C10160
:100840001092C4011092C3011092C6011092C5010A
:100850001092C8011092C7016091C9016E7F6D7F2F
:100860006093C9016695617081E068270E94E0008D
:1008700061E081E00E940F01EBE9F0E0E491E09398
:10088000BB01E7E8F0E0E491F0E0EE0FFF1FEE5867
:10089000FF4F859194919093BD018093BC0160E0DE
:1008A00080E00E940F018091C90181FD04C061E0D8
:1008B00080E00E94E0001092B701EAE9F0E0E491E4
:1008C000E093B801E6E8F0E0E491F0E0EE0FFF1FFE
:1008D000E458FF4F859194919093BA018093B901A8
:1008E000089584E091E09093AC018093AB018091F6
:1008F0009A0190919B018B5A914071F4E091BE0155
:10090000F091BF0190818091C001809589238083FF
:1009100010929B0110929A01089597FB072E16F4EE
:10092000009407D077FD09D00E94A10407FC05D0F0
:100930003EF4909581959F4F0895709561957F4FF6
:100940000895AA1BBB1B51E107C0AA1FBB1FA61716
:10095000B70710F0A61BB70B881F991F5A95A9F768
:1009600080959095BC01CD010895EE0FFF1F059075
:10097000F491E02D099481E090E0F8940C94C00487
:1009800010E0C2E6D0E004C0FE010E94B50421964A
:0A099000C336D107C9F7F894FFCF72
:10099A000000000064018D00EE016301B401CC0186
:1009AA004B014E6F7420696D706C656D656E746570
:1009BA006420796574210057686174207468652021
:1009CA006675636B2077617320746861743F004FAA
:1009DA006E20666972652100457665727974686968
:0809EA006E67206F6B21000015
:00000001FF
